{
  "contractName": "LandRegistration",
  "abi": [
    {
      "inputs": [],
      "stateMutability": "nonpayable",
      "type": "constructor"
    },
    {
      "inputs": [
        {
          "internalType": "address",
          "name": "_adminAddress",
          "type": "address"
        },
        {
          "internalType": "string",
          "name": "_village",
          "type": "string"
        }
      ],
      "name": "addVillageAdmin",
      "outputs": [],
      "stateMutability": "nonpayable",
      "type": "function"
    },
    {
      "inputs": [
        {
          "internalType": "string",
          "name": "_state",
          "type": "string"
        },
        {
          "internalType": "string",
          "name": "_district",
          "type": "string"
        },
        {
          "internalType": "string",
          "name": "_village",
          "type": "string"
        },
        {
          "internalType": "string",
          "name": "_surveyNumber",
          "type": "string"
        },
        {
          "internalType": "string",
          "name": "_subDivisionNumber",
          "type": "string"
        }
      ],
      "name": "generateLandId",
      "outputs": [
        {
          "internalType": "uint256",
          "name": "",
          "type": "uint256"
        }
      ],
      "stateMutability": "pure",
      "type": "function",
      "constant": true
    },
    {
      "inputs": [
        {
          "internalType": "address",
          "name": "_landOwner",
          "type": "address"
        },
        {
          "internalType": "string",
          "name": "_state",
          "type": "string"
        },
        {
          "internalType": "string",
          "name": "_district",
          "type": "string"
        },
        {
          "internalType": "string",
          "name": "_village",
          "type": "string"
        },
        {
          "internalType": "string",
          "name": "_surveyNumber",
          "type": "string"
        },
        {
          "internalType": "string",
          "name": "_subDivisionNumber",
          "type": "string"
        },
        {
          "internalType": "uint256",
          "name": "_ownerAadharNumber",
          "type": "uint256"
        }
      ],
      "name": "addLandDetails",
      "outputs": [],
      "stateMutability": "nonpayable",
      "type": "function"
    },
    {
      "inputs": [
        {
          "internalType": "uint256",
          "name": "_landId",
          "type": "uint256"
        },
        {
          "internalType": "int256",
          "name": "_latitudeDegree",
          "type": "int256"
        },
        {
          "internalType": "int256",
          "name": "_latitudeMinute",
          "type": "int256"
        },
        {
          "internalType": "int256",
          "name": "_latitudeSecond",
          "type": "int256"
        },
        {
          "internalType": "int256",
          "name": "_longitudeDegree",
          "type": "int256"
        },
        {
          "internalType": "int256",
          "name": "_longitudeMinute",
          "type": "int256"
        },
        {
          "internalType": "int256",
          "name": "_longitudeSecond",
          "type": "int256"
        },
        {
          "internalType": "uint256",
          "name": "_radius",
          "type": "uint256"
        },
        {
          "internalType": "uint256",
          "name": "_areaInCents",
          "type": "uint256"
        },
        {
          "internalType": "uint256",
          "name": "_marketPrice",
          "type": "uint256"
        },
        {
          "internalType": "bool",
          "name": "_isDryLand",
          "type": "bool"
        }
      ],
      "name": "addLandCoordinates",
      "outputs": [],
      "stateMutability": "nonpayable",
      "type": "function"
    },
    {
      "inputs": [],
      "name": "requestLinkAadhar",
      "outputs": [],
      "stateMutability": "nonpayable",
      "type": "function"
    },
    {
      "inputs": [
        {
          "internalType": "string",
          "name": "_firstName",
          "type": "string"
        },
        {
          "internalType": "string",
          "name": "_lastName",
          "type": "string"
        },
        {
          "internalType": "string",
          "name": "_addressInfo",
          "type": "string"
        },
        {
          "internalType": "string",
          "name": "_aadharNumber",
          "type": "string"
        },
        {
          "internalType": "string",
          "name": "_panNumber",
          "type": "string"
        },
        {
          "internalType": "string",
          "name": "_phoneNumber",
          "type": "string"
        }
      ],
      "name": "addPersonalInfo",
      "outputs": [],
      "stateMutability": "nonpayable",
      "type": "function"
    },
    {
      "inputs": [],
      "name": "viewDetailsInRequestList",
      "outputs": [
        {
          "internalType": "string",
          "name": "",
          "type": "string"
        },
        {
          "internalType": "string",
          "name": "",
          "type": "string"
        },
        {
          "internalType": "string",
          "name": "",
          "type": "string"
        },
        {
          "internalType": "string",
          "name": "",
          "type": "string"
        },
        {
          "internalType": "string",
          "name": "",
          "type": "string"
        },
        {
          "internalType": "string",
          "name": "",
          "type": "string"
        }
      ],
      "stateMutability": "view",
      "type": "function",
      "constant": true
    },
    {
      "inputs": [
        {
          "internalType": "uint256",
          "name": "_OwnerAadharNumber",
          "type": "uint256"
        }
      ],
      "name": "verifyAadhar",
      "outputs": [],
      "stateMutability": "nonpayable",
      "type": "function"
    },
    {
      "inputs": [
        {
          "internalType": "uint256",
          "name": "_landId",
          "type": "uint256"
        },
        {
          "internalType": "uint256",
          "name": "_marketPrice",
          "type": "uint256"
        }
      ],
      "name": "editMarketPrice",
      "outputs": [],
      "stateMutability": "nonpayable",
      "type": "function"
    },
    {
      "inputs": [],
      "name": "viewMyPortfolio",
      "outputs": [
        {
          "internalType": "uint256[]",
          "name": "",
          "type": "uint256[]"
        }
      ],
      "stateMutability": "view",
      "type": "function",
      "constant": true
    },
    {
      "inputs": [
        {
          "internalType": "address",
          "name": "_ownerAddress",
          "type": "address"
        }
      ],
      "name": "viewPortfolio",
      "outputs": [
        {
          "internalType": "uint256[]",
          "name": "",
          "type": "uint256[]"
        }
      ],
      "stateMutability": "view",
      "type": "function",
      "constant": true
    },
    {
      "inputs": [
        {
          "internalType": "uint256",
          "name": "_landId",
          "type": "uint256"
        },
        {
          "internalType": "uint256",
          "name": "_areaForSale",
          "type": "uint256"
        },
        {
          "internalType": "int256",
          "name": "_latitudeDegreeOfAreaForSale",
          "type": "int256"
        },
        {
          "internalType": "int256",
          "name": "_latitudeMinuteOfAreaForSale",
          "type": "int256"
        },
        {
          "internalType": "int256",
          "name": "_latitudeSecondOfAreaForSale",
          "type": "int256"
        },
        {
          "internalType": "int256",
          "name": "_longitudeDegreeOfAreaForSale",
          "type": "int256"
        },
        {
          "internalType": "int256",
          "name": "_longitudeMinuteOfAreaForSale",
          "type": "int256"
        },
        {
          "internalType": "int256",
          "name": "_longitudeSecondOfAreaForSale",
          "type": "int256"
        },
        {
          "internalType": "uint256",
          "name": "_marketPriceOfAreaForSale",
          "type": "uint256"
        },
        {
          "internalType": "uint256",
          "name": "_radiusOfAreaForSale",
          "type": "uint256"
        },
        {
          "internalType": "uint256",
          "name": "_minOffer",
          "type": "uint256"
        }
      ],
      "name": "landForSale",
      "outputs": [],
      "stateMutability": "nonpayable",
      "type": "function"
    },
    {
      "inputs": [
        {
          "internalType": "uint256",
          "name": "_landId",
          "type": "uint256"
        },
        {
          "internalType": "uint256",
          "name": "_minOffer",
          "type": "uint256"
        }
      ],
      "name": "modifyMinOffer",
      "outputs": [],
      "stateMutability": "nonpayable",
      "type": "function"
    },
    {
      "inputs": [
        {
          "internalType": "uint256",
          "name": "_landId",
          "type": "uint256"
        }
      ],
      "name": "removeLandForSale",
      "outputs": [],
      "stateMutability": "nonpayable",
      "type": "function"
    },
    {
      "inputs": [],
      "name": "viewVerificationOfSaleDetails",
      "outputs": [
        {
          "internalType": "int256",
          "name": "",
          "type": "int256"
        },
        {
          "internalType": "int256",
          "name": "",
          "type": "int256"
        },
        {
          "internalType": "int256",
          "name": "",
          "type": "int256"
        },
        {
          "internalType": "int256",
          "name": "",
          "type": "int256"
        },
        {
          "internalType": "int256",
          "name": "",
          "type": "int256"
        },
        {
          "internalType": "int256",
          "name": "",
          "type": "int256"
        },
        {
          "internalType": "uint256",
          "name": "",
          "type": "uint256"
        },
        {
          "internalType": "uint256",
          "name": "",
          "type": "uint256"
        }
      ],
      "stateMutability": "nonpayable",
      "type": "function"
    },
    {
      "inputs": [],
      "name": "approveSaleDetails",
      "outputs": [],
      "stateMutability": "nonpayable",
      "type": "function"
    },
    {
      "inputs": [
        {
          "internalType": "int256",
          "name": "_latitudeDegreeAfterSale",
          "type": "int256"
        },
        {
          "internalType": "int256",
          "name": "_latitudeMinuteAfterSale",
          "type": "int256"
        },
        {
          "internalType": "int256",
          "name": "_latitudeSecondAfterSale",
          "type": "int256"
        },
        {
          "internalType": "int256",
          "name": "_longitudeDegreeAfterSale",
          "type": "int256"
        },
        {
          "internalType": "int256",
          "name": "_longitudeMinuteAfterSale",
          "type": "int256"
        },
        {
          "internalType": "int256",
          "name": "_longitudeSecondAfterSale",
          "type": "int256"
        },
        {
          "internalType": "uint256",
          "name": "_marketPriceAfterSale",
          "type": "uint256"
        },
        {
          "internalType": "uint256",
          "name": "_radiusAfterSale",
          "type": "uint256"
        }
      ],
      "name": "approveSaleDetails",
      "outputs": [],
      "stateMutability": "nonpayable",
      "type": "function"
    },
    {
      "inputs": [
        {
          "internalType": "uint256",
          "name": "_landId",
          "type": "uint256"
        },
        {
          "internalType": "uint256",
          "name": "_buyersOffer",
          "type": "uint256"
        }
      ],
      "name": "makeAnOffer",
      "outputs": [],
      "stateMutability": "nonpayable",
      "type": "function"
    },
    {
      "inputs": [
        {
          "internalType": "uint256",
          "name": "_landId",
          "type": "uint256"
        }
      ],
      "name": "withdrawOffer",
      "outputs": [],
      "stateMutability": "nonpayable",
      "type": "function"
    },
    {
      "inputs": [
        {
          "internalType": "uint256",
          "name": "_landId",
          "type": "uint256"
        }
      ],
      "name": "viewOffer",
      "outputs": [
        {
          "internalType": "uint256",
          "name": "",
          "type": "uint256"
        }
      ],
      "stateMutability": "view",
      "type": "function",
      "constant": true
    },
    {
      "inputs": [
        {
          "internalType": "uint256",
          "name": "_landId",
          "type": "uint256"
        }
      ],
      "name": "acceptOffer",
      "outputs": [],
      "stateMutability": "nonpayable",
      "type": "function"
    },
    {
      "inputs": [
        {
          "internalType": "uint256",
          "name": "_landId",
          "type": "uint256"
        }
      ],
      "name": "rejectOffer",
      "outputs": [],
      "stateMutability": "nonpayable",
      "type": "function"
    }
  ],
  "bytecode": "0x608060405234801561001057600080fd5b50336000806101000a81548173ffffffffffffffffffffffffffffffffffffffff021916908373ffffffffffffffffffffffffffffffffffffffff1602179055506002600460008060009054906101000a900473ffffffffffffffffffffffffffffffffffffffff1673ffffffffffffffffffffffffffffffffffffffff1673ffffffffffffffffffffffffffffffffffffffff168152602001908152602001600020819055506154de806100c66000396000f3fe608060405234801561001057600080fd5b50600436106101425760003560e01c80639e6df087116100b8578063bba8d7711161007c578063bba8d77114610316578063c815729d14610332578063e0333be61461034e578063e31e19071461037e578063f15ea3ca146103a1578063ff790372146103bd57610142565b80639e6df08714610286578063a5021192146102a4578063a76b8d87146102ae578063aaf4bdca146102de578063b92b8c53146102fa57610142565b80638610f0451161010a5780638610f045146101ca578063884feb18146101e657806388b10c7514610202578063908b9f901461021e57806393efb18e1461023a5780639b55e6381461025657610142565b80631cc321d314610147578063328bc25c146101635780633fee80e21461017f57806360cf0bd31461019b57806365eac16d146101a5575b600080fd5b610161600480360381019061015c9190614d1f565b6103d9565b005b61017d60048036038101906101789190614aed565b610585565b005b61019960048036038101906101949190614d5b565b610797565b005b6101a3610958565b005b6101ad610a22565b6040516101c1989796959493929190615000565b60405180910390f35b6101e460048036038101906101df9190614c06565b610e38565b005b61020060048036038101906101fb91906147e2565b610f4a565b005b61021c60048036038101906102179190614c06565b611058565b005b61023860048036038101906102339190614836565b61116a565b005b610254600480360381019061024f9190614c06565b6113f0565b005b610270600480360381019061026b9190614c06565b611501565b60405161027d9190615109565b60405180910390f35b61028e611521565b60405161029b9190614fde565b60405180910390f35b6102ac6115b6565b005b6102c860048036038101906102c391906149fe565b611667565b6040516102d59190615109565b60405180910390f35b6102f860048036038101906102f39190614d1f565b6116bc565b005b610314600480360381019061030f9190614d1f565b611749565b005b610330600480360381019061032b919061494c565b6117b4565b005b61034c60048036038101906103479190614c06565b611b0a565b005b610368600480360381019061036391906147b9565b611bc7565b6040516103759190614fde565b60405180910390f35b610386611c5e565b6040516103989695949392919061507e565b60405180910390f35b6103bb60048036038101906103b69190614c06565b6123ad565b005b6103d760048036038101906103d29190614c2f565b612427565b005b60026000838152602001908152602001600020600f0160019054906101000a900460ff16801561046b57503373ffffffffffffffffffffffffffffffffffffffff166002600084815260200190815260200160002060000160009054906101000a900473ffffffffffffffffffffffffffffffffffffffff1673ffffffffffffffffffffffffffffffffffffffff1614155b801561049757506002600083815260200190815260200160002060190160009054906101000a900460ff165b80156104b857508060026000848152602001908152602001600020601a0154105b80156104d957508060026000848152602001908152602001600020601c0154105b6104e257600080fd5b3360026000848152602001908152602001600020601b0160016101000a81548173ffffffffffffffffffffffffffffffffffffffff021916908373ffffffffffffffffffffffffffffffffffffffff1602179055508060026000848152602001908152602001600020601c0181905550600160026000848152602001908152602001600020601b0160006101000a81548160ff0219169083151502179055505050565b85600560003373ffffffffffffffffffffffffffffffffffffffff1673ffffffffffffffffffffffffffffffffffffffff16815260200190815260200160002060000190805190602001906105db9291906145cd565b5084600560003373ffffffffffffffffffffffffffffffffffffffff1673ffffffffffffffffffffffffffffffffffffffff16815260200190815260200160002060010190805190602001906106329291906145cd565b5083600560003373ffffffffffffffffffffffffffffffffffffffff1673ffffffffffffffffffffffffffffffffffffffff16815260200190815260200160002060020190805190602001906106899291906145cd565b5082600560003373ffffffffffffffffffffffffffffffffffffffff1673ffffffffffffffffffffffffffffffffffffffff16815260200190815260200160002060030190805190602001906106e09291906145cd565b5081600560003373ffffffffffffffffffffffffffffffffffffffff1673ffffffffffffffffffffffffffffffffffffffff16815260200190815260200160002060040190805190602001906107379291906145cd565b5080600560003373ffffffffffffffffffffffffffffffffffffffff1673ffffffffffffffffffffffffffffffffffffffff168152602001908152602001600020600501908051906020019061078e9291906145cd565b50505050505050565b600260008c815260200190815260200160002060000160009054906101000a900473ffffffffffffffffffffffffffffffffffffffff1673ffffffffffffffffffffffffffffffffffffffff163373ffffffffffffffffffffffffffffffffffffffff161461080557600080fd5b6001600260008d8152602001908152602001600020600f0160016101000a81548160ff02191690831515021790555089600260008d81526020019081526020016000206010018190555088600260008d81526020019081526020016000206011018190555087600260008d81526020019081526020016000206012018190555086600260008d81526020019081526020016000206013018190555085600260008d81526020019081526020016000206014018190555084600260008d81526020019081526020016000206015018190555083600260008d81526020019081526020016000206016018190555082600260008d81526020019081526020016000206017018190555081600260008d81526020019081526020016000206018018190555080600260008d8152602001908152602001600020601a018190555061094b8b6125a1565b5050505050505050505050565b6000600460003373ffffffffffffffffffffffffffffffffffffffff1673ffffffffffffffffffffffffffffffffffffffff16815260200190815260200160002054116109a457600080fd5b60016002600060086000815481106109e5577f4e487b7100000000000000000000000000000000000000000000000000000000600052603260045260246000fd5b9060005260206000200154815260200190815260200160002060190160006101000a81548160ff021916908315150217905550610a206125cd565b565b6000806000806000806000806000600460003373ffffffffffffffffffffffffffffffffffffffff1673ffffffffffffffffffffffffffffffffffffffff1681526020019081526020016000205411610a7a57600080fd5b5b6000600880549050118015610afc575060001515600260006008600081548110610ace577f4e487b7100000000000000000000000000000000000000000000000000000000600052603260045260246000fd5b90600052602060002001548152602001908152602001600020600f0160019054906101000a900460ff161515145b15610b0e57610b096125cd565b610a7b565b60006008805490501115610e1157600260006008600081548110610b5b577f4e487b7100000000000000000000000000000000000000000000000000000000600052603260045260246000fd5b9060005260206000200154815260200190815260200160002060110154600260006008600081548110610bb7577f4e487b7100000000000000000000000000000000000000000000000000000000600052603260045260246000fd5b9060005260206000200154815260200190815260200160002060120154600260006008600081548110610c13577f4e487b7100000000000000000000000000000000000000000000000000000000600052603260045260246000fd5b9060005260206000200154815260200190815260200160002060130154600260006008600081548110610c6f577f4e487b7100000000000000000000000000000000000000000000000000000000600052603260045260246000fd5b9060005260206000200154815260200190815260200160002060140154600260006008600081548110610ccb577f4e487b7100000000000000000000000000000000000000000000000000000000600052603260045260246000fd5b9060005260206000200154815260200190815260200160002060150154600260006008600081548110610d27577f4e487b7100000000000000000000000000000000000000000000000000000000600052603260045260246000fd5b9060005260206000200154815260200190815260200160002060160154600260006008600081548110610d83577f4e487b7100000000000000000000000000000000000000000000000000000000600052603260045260246000fd5b9060005260206000200154815260200190815260200160002060180154600260006008600081548110610ddf577f4e487b7100000000000000000000000000000000000000000000000000000000600052603260045260246000fd5b906000526020600020015481526020019081526020016000206017015497509750975097509750975097509750610e2e565b600080600080600080600080975097509750975097509750975097505b9091929394959697565b3373ffffffffffffffffffffffffffffffffffffffff1660026000838152602001908152602001600020601b0160019054906101000a900473ffffffffffffffffffffffffffffffffffffffff1673ffffffffffffffffffffffffffffffffffffffff1614610ea657600080fd5b600060026000838152602001908152602001600020601b0160016101000a81548173ffffffffffffffffffffffffffffffffffffffff021916908373ffffffffffffffffffffffffffffffffffffffff160217905550600060026000838152602001908152602001600020601c0181905550600060026000838152602001908152602001600020601b0160006101000a81548160ff02191690831515021790555050565b60008054906101000a900473ffffffffffffffffffffffffffffffffffffffff1673ffffffffffffffffffffffffffffffffffffffff163373ffffffffffffffffffffffffffffffffffffffff1614610fa257600080fd5b81600382604051610fb39190614f58565b908152602001604051809103902060006101000a81548173ffffffffffffffffffffffffffffffffffffffff021916908373ffffffffffffffffffffffffffffffffffffffff160217905550600460008373ffffffffffffffffffffffffffffffffffffffff1673ffffffffffffffffffffffffffffffffffffffff168152602001908152602001600020600081548092919061104f90615305565b91905055505050565b3373ffffffffffffffffffffffffffffffffffffffff166002600083815260200190815260200160002060000160009054906101000a900473ffffffffffffffffffffffffffffffffffffffff1673ffffffffffffffffffffffffffffffffffffffff16146110c657600080fd5b600060026000838152602001908152602001600020601b0160016101000a81548173ffffffffffffffffffffffffffffffffffffffff021916908373ffffffffffffffffffffffffffffffffffffffff160217905550600060026000838152602001908152602001600020601c0181905550600060026000838152602001908152602001600020601b0160006101000a81548160ff02191690831515021790555050565b6000600460003373ffffffffffffffffffffffffffffffffffffffff1673ffffffffffffffffffffffffffffffffffffffff16815260200190815260200160002054116111b657600080fd5b6000600660008973ffffffffffffffffffffffffffffffffffffffff1673ffffffffffffffffffffffffffffffffffffffff1681526020019081526020016000205414156112435780600660008973ffffffffffffffffffffffffffffffffffffffff1673ffffffffffffffffffffffffffffffffffffffff168152602001908152602001600020819055505b60006112528787878787611667565b9050600160008973ffffffffffffffffffffffffffffffffffffffff1673ffffffffffffffffffffffffffffffffffffffff168152602001908152602001600020819080600181540180825580915050600190039060005260206000200160009091909190915055876002600083815260200190815260200160002060000160006101000a81548173ffffffffffffffffffffffffffffffffffffffff021916908373ffffffffffffffffffffffffffffffffffffffff160217905550866002600083815260200190815260200160002060010190805190602001906113399291906145cd565b50856002600083815260200190815260200160002060020190805190602001906113649291906145cd565b508460026000838152602001908152602001600020600301908051906020019061138f9291906145cd565b50836002600083815260200190815260200160002060040190805190602001906113ba9291906145cd565b50826002600083815260200190815260200160002060050190805190602001906113e59291906145cd565b505050505050505050565b600060078054905011801561144457506000600460003373ffffffffffffffffffffffffffffffffffffffff1673ffffffffffffffffffffffffffffffffffffffff16815260200190815260200160002054115b61144d57600080fd5b8060066000600760008154811061148d577f4e487b7100000000000000000000000000000000000000000000000000000000600052603260045260246000fd5b9060005260206000200160009054906101000a900473ffffffffffffffffffffffffffffffffffffffff1673ffffffffffffffffffffffffffffffffffffffff1673ffffffffffffffffffffffffffffffffffffffff168152602001908152602001600020819055506114fe6126e4565b50565b600060026000838152602001908152602001600020601c01549050919050565b6060600160003373ffffffffffffffffffffffffffffffffffffffff1673ffffffffffffffffffffffffffffffffffffffff1681526020019081526020016000208054806020026020016040519081016040528092919081815260200182805480156115ac57602002820191906000526020600020905b815481526020019060010190808311611598575b5050505050905090565b6000600660003373ffffffffffffffffffffffffffffffffffffffff1673ffffffffffffffffffffffffffffffffffffffff168152602001908152602001600020541461160257600080fd5b6007339080600181540180825580915050600190039060005260206000200160009091909190916101000a81548173ffffffffffffffffffffffffffffffffffffffff021916908373ffffffffffffffffffffffffffffffffffffffff160217905550565b60006a084595161401484a000000868686868660405160200161168e959493929190614f93565b6040516020818303038152906040528051906020012060001c6116b1919061534e565b905095945050505050565b6002600083815260200190815260200160002060000160009054906101000a900473ffffffffffffffffffffffffffffffffffffffff1673ffffffffffffffffffffffffffffffffffffffff163373ffffffffffffffffffffffffffffffffffffffff161461172a57600080fd5b8060026000848152602001908152602001600020601a01819055505050565b6000600460003373ffffffffffffffffffffffffffffffffffffffff1673ffffffffffffffffffffffffffffffffffffffff168152602001908152602001600020541161179557600080fd5b8060026000848152602001908152602001600020600e01819055505050565b6000600460003373ffffffffffffffffffffffffffffffffffffffff1673ffffffffffffffffffffffffffffffffffffffff168152602001908152602001600020541161180057600080fd5b87600260006008600081548110611840577f4e487b7100000000000000000000000000000000000000000000000000000000600052603260045260246000fd5b90600052602060002001548152602001908152602001600020601d0181905550866002600060086000815481106118a0577f4e487b7100000000000000000000000000000000000000000000000000000000600052603260045260246000fd5b90600052602060002001548152602001908152602001600020601e018190555085600260006008600081548110611900577f4e487b7100000000000000000000000000000000000000000000000000000000600052603260045260246000fd5b90600052602060002001548152602001908152602001600020601f018190555084600260006008600081548110611960577f4e487b7100000000000000000000000000000000000000000000000000000000600052603260045260246000fd5b9060005260206000200154815260200190815260200160002060200181905550836002600060086000815481106119c0577f4e487b7100000000000000000000000000000000000000000000000000000000600052603260045260246000fd5b906000526020600020015481526020019081526020016000206021018190555082600260006008600081548110611a20577f4e487b7100000000000000000000000000000000000000000000000000000000600052603260045260246000fd5b906000526020600020015481526020019081526020016000206022018190555081600260006008600081548110611a80577f4e487b7100000000000000000000000000000000000000000000000000000000600052603260045260246000fd5b906000526020600020015481526020019081526020016000206023018190555080600260006008600081548110611ae0577f4e487b7100000000000000000000000000000000000000000000000000000000600052603260045260246000fd5b90600052602060002001548152602001908152602001600020602401819055505050505050505050565b6002600082815260200190815260200160002060000160009054906101000a900473ffffffffffffffffffffffffffffffffffffffff1673ffffffffffffffffffffffffffffffffffffffff163373ffffffffffffffffffffffffffffffffffffffff1614611b7857600080fd5b60026000828152602001908152602001600020600d015460026000838152602001908152602001600020601001541415611bba57611bb581612874565b611bc4565b611bc3816129e7565b5b50565b6060600160008373ffffffffffffffffffffffffffffffffffffffff1673ffffffffffffffffffffffffffffffffffffffff168152602001908152602001600020805480602002602001604051908101604052809291908181526020018280548015611c5257602002820191906000526020600020905b815481526020019060010190808311611c3e575b50505050509050919050565b606080606080606080600560006007600081548110611ca6577f4e487b7100000000000000000000000000000000000000000000000000000000600052603260045260246000fd5b9060005260206000200160009054906101000a900473ffffffffffffffffffffffffffffffffffffffff1673ffffffffffffffffffffffffffffffffffffffff1673ffffffffffffffffffffffffffffffffffffffff168152602001908152602001600020600001600560006007600081548110611d4d577f4e487b7100000000000000000000000000000000000000000000000000000000600052603260045260246000fd5b9060005260206000200160009054906101000a900473ffffffffffffffffffffffffffffffffffffffff1673ffffffffffffffffffffffffffffffffffffffff1673ffffffffffffffffffffffffffffffffffffffff168152602001908152602001600020600101600560006007600081548110611df4577f4e487b7100000000000000000000000000000000000000000000000000000000600052603260045260246000fd5b9060005260206000200160009054906101000a900473ffffffffffffffffffffffffffffffffffffffff1673ffffffffffffffffffffffffffffffffffffffff1673ffffffffffffffffffffffffffffffffffffffff168152602001908152602001600020600201600560006007600081548110611e9b577f4e487b7100000000000000000000000000000000000000000000000000000000600052603260045260246000fd5b9060005260206000200160009054906101000a900473ffffffffffffffffffffffffffffffffffffffff1673ffffffffffffffffffffffffffffffffffffffff1673ffffffffffffffffffffffffffffffffffffffff168152602001908152602001600020600301600560006007600081548110611f42577f4e487b7100000000000000000000000000000000000000000000000000000000600052603260045260246000fd5b9060005260206000200160009054906101000a900473ffffffffffffffffffffffffffffffffffffffff1673ffffffffffffffffffffffffffffffffffffffff1673ffffffffffffffffffffffffffffffffffffffff168152602001908152602001600020600401600560006007600081548110611fe9577f4e487b7100000000000000000000000000000000000000000000000000000000600052603260045260246000fd5b9060005260206000200160009054906101000a900473ffffffffffffffffffffffffffffffffffffffff1673ffffffffffffffffffffffffffffffffffffffff1673ffffffffffffffffffffffffffffffffffffffff16815260200190815260200160002060050185805461205d906152a2565b80601f0160208091040260200160405190810160405280929190818152602001828054612089906152a2565b80156120d65780601f106120ab576101008083540402835291602001916120d6565b820191906000526020600020905b8154815290600101906020018083116120b957829003601f168201915b505050505095508480546120e9906152a2565b80601f0160208091040260200160405190810160405280929190818152602001828054612115906152a2565b80156121625780601f1061213757610100808354040283529160200191612162565b820191906000526020600020905b81548152906001019060200180831161214557829003601f168201915b50505050509450838054612175906152a2565b80601f01602080910402602001604051908101604052809291908181526020018280546121a1906152a2565b80156121ee5780601f106121c3576101008083540402835291602001916121ee565b820191906000526020600020905b8154815290600101906020018083116121d157829003601f168201915b50505050509350828054612201906152a2565b80601f016020809104026020016040519081016040528092919081815260200182805461222d906152a2565b801561227a5780601f1061224f5761010080835404028352916020019161227a565b820191906000526020600020905b81548152906001019060200180831161225d57829003601f168201915b5050505050925081805461228d906152a2565b80601f01602080910402602001604051908101604052809291908181526020018280546122b9906152a2565b80156123065780601f106122db57610100808354040283529160200191612306565b820191906000526020600020905b8154815290600101906020018083116122e957829003601f168201915b50505050509150808054612319906152a2565b80601f0160208091040260200160405190810160405280929190818152602001828054612345906152a2565b80156123925780601f1061236757610100808354040283529160200191612392565b820191906000526020600020905b81548152906001019060200180831161237557829003601f168201915b50505050509050955095509550955095509550909192939495565b6002600082815260200190815260200160002060000160009054906101000a900473ffffffffffffffffffffffffffffffffffffffff1673ffffffffffffffffffffffffffffffffffffffff163373ffffffffffffffffffffffffffffffffffffffff161461241b57600080fd5b61242481613a16565b50565b6000600460003373ffffffffffffffffffffffffffffffffffffffff1673ffffffffffffffffffffffffffffffffffffffff168152602001908152602001600020541161247357600080fd5b89600260008d81526020019081526020016000206006018190555088600260008d81526020019081526020016000206007018190555087600260008d81526020019081526020016000206008018190555086600260008d81526020019081526020016000206009018190555085600260008d8152602001908152602001600020600a018190555084600260008d8152602001908152602001600020600b018190555083600260008d8152602001908152602001600020600c018190555082600260008d8152602001908152602001600020600d018190555081600260008d8152602001908152602001600020600e018190555080600260008d8152602001908152602001600020600f0160006101000a81548160ff0219169083151502179055505050505050505050505050565b600881908060018154018082558091505060019003906000526020600020016000909190919091505550565b600060088054905090506000600190505b818110156126925760088181548110612620577f4e487b7100000000000000000000000000000000000000000000000000000000600052603260045260246000fd5b9060005260206000200154600860018361263a91906151da565b81548110612671577f4e487b7100000000000000000000000000000000000000000000000000000000600052603260045260246000fd5b9060005260206000200181905550808061268a90615305565b9150506125de565b5060088054806126cb577f4e487b7100000000000000000000000000000000000000000000000000000000600052603160045260246000fd5b6001900381819060005260206000200160009055905550565b600060078054905090506000600190505b818110156128035760078181548110612737577f4e487b7100000000000000000000000000000000000000000000000000000000600052603260045260246000fd5b9060005260206000200160009054906101000a900473ffffffffffffffffffffffffffffffffffffffff16600760018361277191906151da565b815481106127a8577f4e487b7100000000000000000000000000000000000000000000000000000000600052603260045260246000fd5b9060005260206000200160006101000a81548173ffffffffffffffffffffffffffffffffffffffff021916908373ffffffffffffffffffffffffffffffffffffffff16021790555080806127fb90615305565b9150506126f5565b50600780548061283c577f4e487b7100000000000000000000000000000000000000000000000000000000600052603160045260246000fd5b6001900381819060005260206000200160006101000a81549073ffffffffffffffffffffffffffffffffffffffff0219169055905550565b6128b4816002600084815260200190815260200160002060000160009054906101000a900473ffffffffffffffffffffffffffffffffffffffff16613d10565b60026000828152602001908152602001600020601b0160019054906101000a900473ffffffffffffffffffffffffffffffffffffffff166002600083815260200190815260200160002060000160006101000a81548173ffffffffffffffffffffffffffffffffffffffff021916908373ffffffffffffffffffffffffffffffffffffffff16021790555061294881613a16565b600160006002600084815260200190815260200160002060000160009054906101000a900473ffffffffffffffffffffffffffffffffffffffff1673ffffffffffffffffffffffffffffffffffffffff1673ffffffffffffffffffffffffffffffffffffffff16815260200190815260200160002081908060018154018082558091505060019003906000526020600020016000909190919091505550565b6000612ac6600260008481526020019081526020016000206005018054612a0d906152a2565b80601f0160208091040260200160405190810160405280929190818152602001828054612a39906152a2565b8015612a865780601f10612a5b57610100808354040283529160200191612a86565b820191906000526020600020905b815481529060010190602001808311612a6957829003601f168201915b50505050506040518060400160405280600281526020017f2f31000000000000000000000000000000000000000000000000000000000000815250613f02565b90506000612ba7600260008581526020019081526020016000206005018054612aee906152a2565b80601f0160208091040260200160405190810160405280929190818152602001828054612b1a906152a2565b8015612b675780601f10612b3c57610100808354040283529160200191612b67565b820191906000526020600020905b815481529060010190602001808311612b4a57829003601f168201915b50505050506040518060400160405280600281526020017f2f32000000000000000000000000000000000000000000000000000000000000815250613f02565b90506000612e30600260008681526020019081526020016000206001018054612bcf906152a2565b80601f0160208091040260200160405190810160405280929190818152602001828054612bfb906152a2565b8015612c485780601f10612c1d57610100808354040283529160200191612c48565b820191906000526020600020905b815481529060010190602001808311612c2b57829003601f168201915b5050505050600260008781526020019081526020016000206002018054612c6e906152a2565b80601f0160208091040260200160405190810160405280929190818152602001828054612c9a906152a2565b8015612ce75780601f10612cbc57610100808354040283529160200191612ce7565b820191906000526020600020905b815481529060010190602001808311612cca57829003601f168201915b5050505050600260008881526020019081526020016000206003018054612d0d906152a2565b80601f0160208091040260200160405190810160405280929190818152602001828054612d39906152a2565b8015612d865780601f10612d5b57610100808354040283529160200191612d86565b820191906000526020600020905b815481529060010190602001808311612d6957829003601f168201915b5050505050600260008981526020019081526020016000206004018054612dac906152a2565b80601f0160208091040260200160405190810160405280929190818152602001828054612dd8906152a2565b8015612e255780601f10612dfa57610100808354040283529160200191612e25565b820191906000526020600020905b815481529060010190602001808311612e0857829003601f168201915b505050505087611667565b905060006130b9600260008781526020019081526020016000206001018054612e58906152a2565b80601f0160208091040260200160405190810160405280929190818152602001828054612e84906152a2565b8015612ed15780601f10612ea657610100808354040283529160200191612ed1565b820191906000526020600020905b815481529060010190602001808311612eb457829003601f168201915b5050505050600260008881526020019081526020016000206002018054612ef7906152a2565b80601f0160208091040260200160405190810160405280929190818152602001828054612f23906152a2565b8015612f705780601f10612f4557610100808354040283529160200191612f70565b820191906000526020600020905b815481529060010190602001808311612f5357829003601f168201915b5050505050600260008981526020019081526020016000206003018054612f96906152a2565b80601f0160208091040260200160405190810160405280929190818152602001828054612fc2906152a2565b801561300f5780601f10612fe45761010080835404028352916020019161300f565b820191906000526020600020905b815481529060010190602001808311612ff257829003601f168201915b5050505050600260008a81526020019081526020016000206004018054613035906152a2565b80601f0160208091040260200160405190810160405280929190818152602001828054613061906152a2565b80156130ae5780601f10613083576101008083540402835291602001916130ae565b820191906000526020600020905b81548152906001019060200180831161309157829003601f168201915b505050505087611667565b90506130fb856002600088815260200190815260200160002060000160009054906101000a900473ffffffffffffffffffffffffffffffffffffffff16613d10565b61310482613a16565b61310d81613a16565b6002600086815260200190815260200160002060000160009054906101000a900473ffffffffffffffffffffffffffffffffffffffff166002600084815260200190815260200160002060000160006101000a81548173ffffffffffffffffffffffffffffffffffffffff021916908373ffffffffffffffffffffffffffffffffffffffff16021790555060026000868152602001908152602001600020600101600260008481526020019081526020016000206001019080546131d0906152a2565b6131db929190614653565b506002600086815260200190815260200160002060020160026000848152602001908152602001600020600201908054613214906152a2565b61321f929190614653565b506002600086815260200190815260200160002060030160026000848152602001908152602001600020600301908054613258906152a2565b613263929190614653565b50600260008681526020019081526020016000206004016002600084815260200190815260200160002060040190805461329c906152a2565b6132a7929190614653565b50836002600084815260200190815260200160002060050190805190602001906132d29291906145cd565b5060026000868152602001908152602001600020601d0154600260008481526020019081526020016000206006018190555060026000868152602001908152602001600020601e0154600260008481526020019081526020016000206007018190555060026000868152602001908152602001600020601f0154600260008481526020019081526020016000206008018190555060026000868152602001908152602001600020602001546002600084815260200190815260200160002060090181905550600260008681526020019081526020016000206021015460026000848152602001908152602001600020600a0181905550600260008681526020019081526020016000206022015460026000848152602001908152602001600020600b0181905550600260008681526020019081526020016000206024015460026000848152602001908152602001600020600c0181905550600260008681526020019081526020016000206010015460026000878152602001908152602001600020600d015461346291906151da565b60026000848152602001908152602001600020600d0181905550600260008681526020019081526020016000206023015460026000848152602001908152602001600020600e018190555060026000868152602001908152602001600020600f0160009054906101000a900460ff1660026000848152602001908152602001600020600f0160006101000a81548160ff02191690831515021790555060026000868152602001908152602001600020601b0160019054906101000a900473ffffffffffffffffffffffffffffffffffffffff166002600083815260200190815260200160002060000160006101000a81548173ffffffffffffffffffffffffffffffffffffffff021916908373ffffffffffffffffffffffffffffffffffffffff16021790555060026000868152602001908152602001600020600101600260008381526020019081526020016000206001019080546135c1906152a2565b6135cc929190614653565b506002600086815260200190815260200160002060020160026000838152602001908152602001600020600201908054613605906152a2565b613610929190614653565b506002600086815260200190815260200160002060030160026000838152602001908152602001600020600301908054613649906152a2565b613654929190614653565b50600260008681526020019081526020016000206004016002600083815260200190815260200160002060040190805461368d906152a2565b613698929190614653565b50826002600083815260200190815260200160002060050190805190602001906136c39291906145cd565b5060026000868152602001908152602001600020601101546002600083815260200190815260200160002060060181905550600260008681526020019081526020016000206012015460026000838152602001908152602001600020600701819055506002600086815260200190815260200160002060130154600260008381526020019081526020016000206008018190555060026000868152602001908152602001600020601401546002600083815260200190815260200160002060090181905550600260008681526020019081526020016000206015015460026000838152602001908152602001600020600a0181905550600260008681526020019081526020016000206016015460026000838152602001908152602001600020600b0181905550600260008681526020019081526020016000206018015460026000838152602001908152602001600020600c0181905550600260008681526020019081526020016000206010015460026000838152602001908152602001600020600d0181905550600260008681526020019081526020016000206017015460026000838152602001908152602001600020600e018190555060026000868152602001908152602001600020600f0160009054906101000a900460ff1660026000838152602001908152602001600020600f0160006101000a81548160ff021916908315150217905550600160006002600085815260200190815260200160002060000160009054906101000a900473ffffffffffffffffffffffffffffffffffffffff1673ffffffffffffffffffffffffffffffffffffffff1673ffffffffffffffffffffffffffffffffffffffff168152602001908152602001600020829080600181540180825580915050600190039060005260206000200160009091909190915055600160006002600084815260200190815260200160002060000160009054906101000a900473ffffffffffffffffffffffffffffffffffffffff1673ffffffffffffffffffffffffffffffffffffffff1673ffffffffffffffffffffffffffffffffffffffff168152602001908152602001600020819080600181540180825580915050600190039060005260206000200160009091909190915055613a0f85613f2e565b5050505050565b600060026000838152602001908152602001600020600f0160016101000a81548160ff021916908315150217905550600060026000838152602001908152602001600020601001819055506000600260008381526020019081526020016000206011018190555060006002600083815260200190815260200160002060120181905550600060026000838152602001908152602001600020601301819055506000600260008381526020019081526020016000206014018190555060006002600083815260200190815260200160002060150181905550600060026000838152602001908152602001600020601601819055506000600260008381526020019081526020016000206017018190555060006002600083815260200190815260200160002060180181905550600060026000838152602001908152602001600020601a018190555060006002600083815260200190815260200160002060190160006101000a81548160ff021916908315150217905550600060026000838152602001908152602001600020601b0160006101000a81548160ff021916908315150217905550600060026000838152602001908152602001600020601b0160016101000a81548173ffffffffffffffffffffffffffffffffffffffff021916908373ffffffffffffffffffffffffffffffffffffffff160217905550600060026000838152602001908152602001600020601c0181905550600060026000838152602001908152602001600020601d0181905550600060026000838152602001908152602001600020601e0181905550600060026000838152602001908152602001600020601f0181905550600060026000838152602001908152602001600020602001819055506000600260008381526020019081526020016000206021018190555060006002600083815260200190815260200160002060220181905550600060026000838152602001908152602001600020602301819055506000600260008381526020019081526020016000206024018190555050565b6000613d1c83836144cb565b9050600160008373ffffffffffffffffffffffffffffffffffffffff1673ffffffffffffffffffffffffffffffffffffffff16815260200190815260200160002060018060008573ffffffffffffffffffffffffffffffffffffffff1673ffffffffffffffffffffffffffffffffffffffff16815260200190815260200160002080549050613dab91906151da565b81548110613de2577f4e487b7100000000000000000000000000000000000000000000000000000000600052603260045260246000fd5b9060005260206000200154600160008473ffffffffffffffffffffffffffffffffffffffff1673ffffffffffffffffffffffffffffffffffffffff1681526020019081526020016000208281548110613e64577f4e487b7100000000000000000000000000000000000000000000000000000000600052603260045260246000fd5b9060005260206000200181905550600160008373ffffffffffffffffffffffffffffffffffffffff1673ffffffffffffffffffffffffffffffffffffffff168152602001908152602001600020805480613ee7577f4e487b7100000000000000000000000000000000000000000000000000000000600052603160045260246000fd5b60019003818190600052602060002001600090559055505050565b60608282604051602001613f17929190614f6f565b604051602081830303815290604052905092915050565b60006002600083815260200190815260200160002060000160006101000a81548173ffffffffffffffffffffffffffffffffffffffff021916908373ffffffffffffffffffffffffffffffffffffffff16021790555060405180602001604052806000815250600260008381526020019081526020016000206001019080519060200190613fbd9291906145cd565b5060405180602001604052806000815250600260008381526020019081526020016000206002019080519060200190613ff79291906145cd565b50604051806020016040528060008152506002600083815260200190815260200160002060030190805190602001906140319291906145cd565b506040518060200160405280600081525060026000838152602001908152602001600020600401908051906020019061406b9291906145cd565b50604051806020016040528060008152506002600083815260200190815260200160002060050190805190602001906140a59291906145cd565b5060006002600083815260200190815260200160002060060181905550600060026000838152602001908152602001600020600701819055506000600260008381526020019081526020016000206008018190555060006002600083815260200190815260200160002060090181905550600060026000838152602001908152602001600020600a0181905550600060026000838152602001908152602001600020600b0181905550600060026000838152602001908152602001600020600c0181905550600060026000838152602001908152602001600020600d0181905550600060026000838152602001908152602001600020600e0181905550600060026000838152602001908152602001600020600f0160006101000a81548160ff021916908315150217905550600060026000838152602001908152602001600020600f0160016101000a81548160ff021916908315150217905550600060026000838152602001908152602001600020601001819055506000600260008381526020019081526020016000206011018190555060006002600083815260200190815260200160002060120181905550600060026000838152602001908152602001600020601301819055506000600260008381526020019081526020016000206014018190555060006002600083815260200190815260200160002060150181905550600060026000838152602001908152602001600020601601819055506000600260008381526020019081526020016000206017018190555060006002600083815260200190815260200160002060180181905550600060026000838152602001908152602001600020601a018190555060006002600083815260200190815260200160002060190160006101000a81548160ff021916908315150217905550600060026000838152602001908152602001600020601b0160006101000a81548160ff021916908315150217905550600060026000838152602001908152602001600020601b0160016101000a81548173ffffffffffffffffffffffffffffffffffffffff021916908373ffffffffffffffffffffffffffffffffffffffff160217905550600060026000838152602001908152602001600020601c0181905550600060026000838152602001908152602001600020601d0181905550600060026000838152602001908152602001600020601e0181905550600060026000838152602001908152602001600020601f0181905550600060026000838152602001908152602001600020602001819055506000600260008381526020019081526020016000206021018190555060006002600083815260200190815260200160002060220181905550600060026000838152602001908152602001600020602301819055506000600260008381526020019081526020016000206024018190555050565b600080600090505b600160008473ffffffffffffffffffffffffffffffffffffffff1673ffffffffffffffffffffffffffffffffffffffff168152602001908152602001600020805490508110156145c25783600160008573ffffffffffffffffffffffffffffffffffffffff1673ffffffffffffffffffffffffffffffffffffffff1681526020019081526020016000208281548110614595577f4e487b7100000000000000000000000000000000000000000000000000000000600052603260045260246000fd5b906000526020600020015414156145af57809150506145c7565b80806145ba90615305565b9150506144d3565b809150505b92915050565b8280546145d9906152a2565b90600052602060002090601f0160209004810192826145fb5760008555614642565b82601f1061461457805160ff1916838001178555614642565b82800160010185558215614642579182015b82811115614641578251825591602001919060010190614626565b5b50905061464f91906146e0565b5090565b82805461465f906152a2565b90600052602060002090601f01602090048101928261468157600085556146cf565b82601f1061469257805485556146cf565b828001600101855582156146cf57600052602060002091601f016020900482015b828111156146ce5782548255916001019190600101906146b3565b5b5090506146dc91906146e0565b5090565b5b808211156146f95760008160009055506001016146e1565b5090565b600061471061470b84615149565b615124565b90508281526020810184848401111561472857600080fd5b614733848285615260565b509392505050565b60008135905061474a8161544c565b92915050565b60008135905061475f81615463565b92915050565b6000813590506147748161547a565b92915050565b600082601f83011261478b57600080fd5b813561479b8482602086016146fd565b91505092915050565b6000813590506147b381615491565b92915050565b6000602082840312156147cb57600080fd5b60006147d98482850161473b565b91505092915050565b600080604083850312156147f557600080fd5b60006148038582860161473b565b925050602083013567ffffffffffffffff81111561482057600080fd5b61482c8582860161477a565b9150509250929050565b600080600080600080600060e0888a03121561485157600080fd5b600061485f8a828b0161473b565b975050602088013567ffffffffffffffff81111561487c57600080fd5b6148888a828b0161477a565b965050604088013567ffffffffffffffff8111156148a557600080fd5b6148b18a828b0161477a565b955050606088013567ffffffffffffffff8111156148ce57600080fd5b6148da8a828b0161477a565b945050608088013567ffffffffffffffff8111156148f757600080fd5b6149038a828b0161477a565b93505060a088013567ffffffffffffffff81111561492057600080fd5b61492c8a828b0161477a565b92505060c061493d8a828b016147a4565b91505092959891949750929550565b600080600080600080600080610100898b03121561496957600080fd5b60006149778b828c01614765565b98505060206149888b828c01614765565b97505060406149998b828c01614765565b96505060606149aa8b828c01614765565b95505060806149bb8b828c01614765565b94505060a06149cc8b828c01614765565b93505060c06149dd8b828c016147a4565b92505060e06149ee8b828c016147a4565b9150509295985092959890939650565b600080600080600060a08688031215614a1657600080fd5b600086013567ffffffffffffffff811115614a3057600080fd5b614a3c8882890161477a565b955050602086013567ffffffffffffffff811115614a5957600080fd5b614a658882890161477a565b945050604086013567ffffffffffffffff811115614a8257600080fd5b614a8e8882890161477a565b935050606086013567ffffffffffffffff811115614aab57600080fd5b614ab78882890161477a565b925050608086013567ffffffffffffffff811115614ad457600080fd5b614ae08882890161477a565b9150509295509295909350565b60008060008060008060c08789031215614b0657600080fd5b600087013567ffffffffffffffff811115614b2057600080fd5b614b2c89828a0161477a565b965050602087013567ffffffffffffffff811115614b4957600080fd5b614b5589828a0161477a565b955050604087013567ffffffffffffffff811115614b7257600080fd5b614b7e89828a0161477a565b945050606087013567ffffffffffffffff811115614b9b57600080fd5b614ba789828a0161477a565b935050608087013567ffffffffffffffff811115614bc457600080fd5b614bd089828a0161477a565b92505060a087013567ffffffffffffffff811115614bed57600080fd5b614bf989828a0161477a565b9150509295509295509295565b600060208284031215614c1857600080fd5b6000614c26848285016147a4565b91505092915050565b60008060008060008060008060008060006101608c8e031215614c5157600080fd5b6000614c5f8e828f016147a4565b9b50506020614c708e828f01614765565b9a50506040614c818e828f01614765565b9950506060614c928e828f01614765565b9850506080614ca38e828f01614765565b97505060a0614cb48e828f01614765565b96505060c0614cc58e828f01614765565b95505060e0614cd68e828f016147a4565b945050610100614ce88e828f016147a4565b935050610120614cfa8e828f016147a4565b925050610140614d0c8e828f01614750565b9150509295989b509295989b9093969950565b60008060408385031215614d3257600080fd5b6000614d40858286016147a4565b9250506020614d51858286016147a4565b9150509250929050565b60008060008060008060008060008060006101608c8e031215614d7d57600080fd5b6000614d8b8e828f016147a4565b9b50506020614d9c8e828f016147a4565b9a50506040614dad8e828f01614765565b9950506060614dbe8e828f01614765565b9850506080614dcf8e828f01614765565b97505060a0614de08e828f01614765565b96505060c0614df18e828f01614765565b95505060e0614e028e828f01614765565b945050610100614e148e828f016147a4565b935050610120614e268e828f016147a4565b925050610140614e388e828f016147a4565b9150509295989b509295989b9093969950565b6000614e578383614f3a565b60208301905092915050565b6000614e6e8261518a565b614e7881856151ad565b9350614e838361517a565b8060005b83811015614eb4578151614e9b8882614e4b565b9750614ea6836151a0565b925050600181019050614e87565b5085935050505092915050565b614eca8161522c565b82525050565b6000614edb82615195565b614ee581856151be565b9350614ef581856020860161526f565b614efe8161543b565b840191505092915050565b6000614f1482615195565b614f1e81856151cf565b9350614f2e81856020860161526f565b80840191505092915050565b614f4381615256565b82525050565b614f5281615256565b82525050565b6000614f648284614f09565b915081905092915050565b6000614f7b8285614f09565b9150614f878284614f09565b91508190509392505050565b6000614f9f8288614f09565b9150614fab8287614f09565b9150614fb78286614f09565b9150614fc38285614f09565b9150614fcf8284614f09565b91508190509695505050505050565b60006020820190508181036000830152614ff88184614e63565b905092915050565b600061010082019050615016600083018b614ec1565b615023602083018a614ec1565b6150306040830189614ec1565b61503d6060830188614ec1565b61504a6080830187614ec1565b61505760a0830186614ec1565b61506460c0830185614f49565b61507160e0830184614f49565b9998505050505050505050565b600060c08201905081810360008301526150988189614ed0565b905081810360208301526150ac8188614ed0565b905081810360408301526150c08187614ed0565b905081810360608301526150d48186614ed0565b905081810360808301526150e88185614ed0565b905081810360a08301526150fc8184614ed0565b9050979650505050505050565b600060208201905061511e6000830184614f49565b92915050565b600061512e61513f565b905061513a82826152d4565b919050565b6000604051905090565b600067ffffffffffffffff8211156151645761516361540c565b5b61516d8261543b565b9050602081019050919050565b6000819050602082019050919050565b600081519050919050565b600081519050919050565b6000602082019050919050565b600082825260208201905092915050565b600082825260208201905092915050565b600081905092915050565b60006151e582615256565b91506151f083615256565b9250828210156152035761520261537f565b5b828203905092915050565b600061521982615236565b9050919050565b60008115159050919050565b6000819050919050565b600073ffffffffffffffffffffffffffffffffffffffff82169050919050565b6000819050919050565b82818337600083830152505050565b60005b8381101561528d578082015181840152602081019050615272565b8381111561529c576000848401525b50505050565b600060028204905060018216806152ba57607f821691505b602082108114156152ce576152cd6153dd565b5b50919050565b6152dd8261543b565b810181811067ffffffffffffffff821117156152fc576152fb61540c565b5b80604052505050565b600061531082615256565b91507fffffffffffffffffffffffffffffffffffffffffffffffffffffffffffffffff8214156153435761534261537f565b5b600182019050919050565b600061535982615256565b915061536483615256565b925082615374576153736153ae565b5b828206905092915050565b7f4e487b7100000000000000000000000000000000000000000000000000000000600052601160045260246000fd5b7f4e487b7100000000000000000000000000000000000000000000000000000000600052601260045260246000fd5b7f4e487b7100000000000000000000000000000000000000000000000000000000600052602260045260246000fd5b7f4e487b7100000000000000000000000000000000000000000000000000000000600052604160045260246000fd5b6000601f19601f8301169050919050565b6154558161520e565b811461546057600080fd5b50565b61546c81615220565b811461547757600080fd5b50565b6154838161522c565b811461548e57600080fd5b50565b61549a81615256565b81146154a557600080fd5b5056fea264697066735822122064b5e6a12acde16c49dd886323f690448454e8a35907024970e527ea0f843a7964736f6c63430008040033",
  "immutableReferences": {},
  "source": "// SPDX-License-Identifier: MIT\r\npragma solidity >=0.6.0 <0.9.0;\r\n\r\ncontract LandRegistration {\r\n    \r\n    struct landDetails {\r\n        address landOwner;\r\n        string state;\r\n        string district;\r\n        string village;\r\n        string surveyNumber;\r\n        string subDivisionNumber;\r\n        int latitudeDegree;\r\n        int latitudeMinute;\r\n        int latitudeSecond;\r\n        int longitudeDegree;\r\n        int longitudeMinute;\r\n        int longitudeSecond;\r\n        uint radius;\r\n        uint areaInCents;\r\n        uint marketPrice;\r\n        bool isDryLand;\r\n        bool isForSale;\r\n        uint areaForSale;\r\n        int latitudeDegreeOfAreaForSale;\r\n        int latitudeMinuteOfAreaForSale;\r\n        int latitudeSecondOfAreaForSale;\r\n        int longitudeDegreeOfAreaForSale;\r\n        int longitudeMinuteOfAreaForSale;\r\n        int longitudeSecondOfAreaForSale;\r\n        uint marketPriceOfAreaForSale;\r\n        uint radiusOfAreaForSale;\r\n        bool verifiedSaleDetails;\r\n        uint minOffer;\r\n        bool hasAnOffer;\r\n        address buyersAddress;\r\n        uint buyersOffer;\r\n        int latitudeDegreeAfterSale;\r\n        int latitudeMinuteAfterSale;\r\n        int latitudeSecondAfterSale;\r\n        int longitudeDegreeAfterSale;\r\n        int longitudeMinuteAfterSale;\r\n        int longitudeSecondAfterSale;\r\n        uint marketPriceAfterSale;\r\n        uint radiusAfterSale;\r\n    }\r\n\r\n    struct personalInfo {\r\n        string firstName;\r\n        string lastName;\r\n        string addressInfo;\r\n        string aadharNumber;\r\n        string panNumber;\r\n        string phoneNumber;\r\n    }\r\n\r\n    address owner;\r\n\r\n    mapping(address => uint[]) portfolio;\r\n\r\n    mapping(uint => landDetails) accessLandDetails;\r\n\r\n    mapping(string => address) villageAdmin;\r\n\r\n    mapping(address => uint) adminHierarchy;\r\n\r\n    mapping(address => personalInfo) personalDetails;\r\n\r\n    mapping(address => uint) linkAadhar;\r\n\r\n    address[] requestList;\r\n\r\n    uint[] requestOfSaleDetails;\r\n\r\n    constructor() {\r\n        owner = msg.sender;\r\n        adminHierarchy[owner] = 2;\r\n    }\r\n\r\n    function addVillageAdmin(address _adminAddress, string memory _village) public {\r\n        require(msg.sender == owner);\r\n        villageAdmin[_village] = _adminAddress;\r\n        adminHierarchy[_adminAddress]++;\r\n    }\r\n\r\n    function generateLandId(string memory _state, string memory _district, string memory _village, string memory _surveyNumber, string memory _subDivisionNumber) public pure returns(uint) {\r\n        return uint(keccak256(abi.encodePacked(_state, _district, _village, _surveyNumber, _subDivisionNumber))) % (10**25);\r\n\r\n    }\r\n\r\n    function addLandDetails(address _landOwner, string memory _state, string memory _district, string memory _village, string memory _surveyNumber, string memory _subDivisionNumber, uint _ownerAadharNumber) public {\r\n        require(adminHierarchy[msg.sender] > 0);\r\n        if(linkAadhar[_landOwner] == 0){\r\n            linkAadhar[_landOwner] = _ownerAadharNumber;\r\n        }\r\n        uint landId = generateLandId(_state, _district, _village, _surveyNumber, _subDivisionNumber);\r\n        portfolio[_landOwner].push(landId);\r\n        accessLandDetails[landId].landOwner = _landOwner;\r\n        accessLandDetails[landId].state = _state;\r\n        accessLandDetails[landId].district = _district;\r\n        accessLandDetails[landId].village = _village;\r\n        accessLandDetails[landId].surveyNumber = _surveyNumber;\r\n        accessLandDetails[landId].subDivisionNumber = _subDivisionNumber;\r\n        // accessLandDetails[landId].latitudeDegree = _latitudeDegree;\r\n        // accessLandDetails[landId].latitudeMinute = _latitudeMinute;\r\n        // accessLandDetails[landId].latitudeSecond = _latitudeSecond;\r\n        // accessLandDetails[landId].longitudeDegree = _longitudeDegree;\r\n        // accessLandDetails[landId].longitudeMinute = _longitudeMinute;\r\n        // accessLandDetails[landId].longitudeSecond = _longitudeSecond;\r\n        // accessLandDetails[landId].radius = _radius;\r\n        // accessLandDetails[landId].areaInCents = _areaInCents;\r\n        // accessLandDetails[landId].marketPrice = _marketPrice;\r\n        // accessLandDetails[landId].isDryLand = _isDryLand;\r\n    }\r\n\r\n    function addLandCoordinates(uint _landId, int _latitudeDegree, int _latitudeMinute, int _latitudeSecond, int _longitudeDegree, int _longitudeMinute, int _longitudeSecond, uint _radius, uint _areaInCents, uint _marketPrice, bool _isDryLand) public {\r\n        require(adminHierarchy[msg.sender] > 0);\r\n        // if(linkAadhar[_landOwner] == 0){\r\n        //     linkAadhar[_landOwner] = _ownerAadharNumber;\r\n        // }\r\n        // uint landId = generateLandId(_state, _district, _village, _surveyNumber, _subDivisionNumber);\r\n        // portfolio[_landOwner].push(landId);\r\n        // accessLandDetails[landId].landOwner = _landOwner;\r\n        // accessLandDetails[landId].state = _state;\r\n        // accessLandDetails[landId].district = _district;\r\n        // accessLandDetails[landId].village = _village;\r\n        // accessLandDetails[landId].surveyNumber = _surveyNumber;\r\n        // accessLandDetails[landId].subDivisionNumber = _subDivisionNumber;\r\n        accessLandDetails[_landId].latitudeDegree = _latitudeDegree;\r\n        accessLandDetails[_landId].latitudeMinute = _latitudeMinute;\r\n        accessLandDetails[_landId].latitudeSecond = _latitudeSecond;\r\n        accessLandDetails[_landId].longitudeDegree = _longitudeDegree;\r\n        accessLandDetails[_landId].longitudeMinute = _longitudeMinute;\r\n        accessLandDetails[_landId].longitudeSecond = _longitudeSecond;\r\n        accessLandDetails[_landId].radius = _radius;\r\n        accessLandDetails[_landId].areaInCents = _areaInCents;\r\n        accessLandDetails[_landId].marketPrice = _marketPrice;\r\n        accessLandDetails[_landId].isDryLand = _isDryLand;\r\n    }\r\n\r\n    function requestLinkAadhar() public {\r\n        require(linkAadhar[msg.sender] == 0);\r\n        requestList.push(msg.sender);\r\n    }\r\n\r\n    function addPersonalInfo(string memory _firstName, string memory _lastName, string memory _addressInfo, string memory _aadharNumber, string memory _panNumber, string memory _phoneNumber) public {\r\n        personalDetails[msg.sender].firstName = _firstName;\r\n        personalDetails[msg.sender].lastName = _lastName;\r\n        personalDetails[msg.sender].addressInfo = _addressInfo;\r\n        personalDetails[msg.sender].aadharNumber = _aadharNumber;\r\n        personalDetails[msg.sender].panNumber = _panNumber;\r\n        personalDetails[msg.sender].phoneNumber = _phoneNumber;\r\n    }\r\n\r\n    function viewDetailsInRequestList() public view returns(string memory, string memory, string memory, string memory, string memory, string memory) {\r\n        return (personalDetails[requestList[0]].firstName, personalDetails[requestList[0]].lastName, personalDetails[requestList[0]].addressInfo, personalDetails[requestList[0]].aadharNumber, personalDetails[requestList[0]].panNumber, personalDetails[requestList[0]].phoneNumber);\r\n    }\r\n\r\n    function verifyAadhar(uint _OwnerAadharNumber) public {\r\n        require(requestList.length > 0 && adminHierarchy[msg.sender] > 0);\r\n        linkAadhar[requestList[0]] = _OwnerAadharNumber;\r\n        _popRequestList();\r\n    }\r\n\r\n    function editMarketPrice(uint _landId, uint _marketPrice) public {\r\n        require(adminHierarchy[msg.sender] > 0);\r\n        accessLandDetails[_landId].marketPrice = _marketPrice;\r\n    }\r\n\r\n    function viewMyPortfolio() public view returns(uint[] memory) {\r\n        return portfolio[msg.sender];\r\n    }\r\n\r\n    function viewPortfolio(address _ownerAddress) public view returns(uint[] memory) {\r\n        return portfolio[_ownerAddress];\r\n    }\r\n\r\n    // function elaboratedLandInfo(uint _landId) public view returns(address, string memory, string memory, string memory, string memory, string memory, int, int, int, int, int, int, uint, uint, uint, bool, bool, uint, uint, bool, uint) {\r\n    //     return (accessLandDetails[_landId].landOwner, accessLandDetails[_landId].state, accessLandDetails[_landId].district, accessLandDetails[_landId].village, accessLandDetails[_landId].surveyNumber, accessLandDetails[_landId].subDivisionNumber, accessLandDetails[_landId].latitudeDegree, accessLandDetails[_landId].latitudeMinute, accessLandDetails[_landId].latitudeSecond, accessLandDetails[_landId].longitudeDegree, accessLandDetails[_landId].longitudeMinute, accessLandDetails[_landId].longitudeSecond, accessLandDetails[_landId].radius, accessLandDetails[_landId].areaInCents, accessLandDetails[_landId].marketPrice, accessLandDetails[_landId].isDryLand, accessLandDetails[_landId].isForSale, accessLandDetails[_landId].areaForSale, accessLandDetails[_landId].minOffer, accessLandDetails[_landId].hasAnOffer, accessLandDetails[_landId].buyersOffer);\r\n    // }\r\n\r\n    // function ecomomicLandInfo(uint _landId) public view returns(uint, uint, bool, uint, uint, bool, uint) {\r\n    //     return (accessLandDetails[_landId].marketPrice, accessLandDetails[_landId].areaInCents, accessLandDetails[_landId].isForSale, accessLandDetails[_landId].areaForSale, accessLandDetails[_landId].minOffer, accessLandDetails[_landId].isDryLand, accessLandDetails[_landId].buyersOffer);\r\n    // }\r\n\r\n    function landForSale(uint _landId, uint _areaForSale, int _latitudeDegreeOfAreaForSale, int _latitudeMinuteOfAreaForSale, int _latitudeSecondOfAreaForSale, int _longitudeDegreeOfAreaForSale, int _longitudeMinuteOfAreaForSale, int _longitudeSecondOfAreaForSale, uint _marketPriceOfAreaForSale, uint _radiusOfAreaForSale, uint _minOffer) public {\r\n        require(msg.sender == accessLandDetails[_landId].landOwner);\r\n        accessLandDetails[_landId].isForSale = true;\r\n        accessLandDetails[_landId].areaForSale = _areaForSale;\r\n        accessLandDetails[_landId].latitudeDegreeOfAreaForSale = _latitudeDegreeOfAreaForSale;\r\n        accessLandDetails[_landId].latitudeMinuteOfAreaForSale = _latitudeMinuteOfAreaForSale;\r\n        accessLandDetails[_landId].latitudeSecondOfAreaForSale = _latitudeSecondOfAreaForSale;\r\n        accessLandDetails[_landId].longitudeDegreeOfAreaForSale = _longitudeDegreeOfAreaForSale;\r\n        accessLandDetails[_landId].longitudeMinuteOfAreaForSale = _longitudeMinuteOfAreaForSale;\r\n        accessLandDetails[_landId].longitudeSecondOfAreaForSale = _longitudeSecondOfAreaForSale;\r\n        accessLandDetails[_landId].marketPriceOfAreaForSale = _marketPriceOfAreaForSale;\r\n        accessLandDetails[_landId].radiusOfAreaForSale = _radiusOfAreaForSale;\r\n        accessLandDetails[_landId].minOffer = _minOffer;\r\n\r\n        _requestVerificationOfSaleDetails(_landId);\r\n    }\r\n\r\n    function modifyMinOffer(uint _landId, uint _minOffer) public {\r\n        require(msg.sender == accessLandDetails[_landId].landOwner);\r\n        accessLandDetails[_landId].minOffer = _minOffer;\r\n    }\r\n\r\n    function removeLandForSale(uint _landId) public {\r\n        require(msg.sender == accessLandDetails[_landId].landOwner);\r\n        // accessLandDetails[_landId].isForSale = false;\r\n        // accessLandDetails[_landId].areaForSale = 0;\r\n        // accessLandDetails[_landId].latitudeDegreeOfAreaForSale = 0;\r\n        // accessLandDetails[_landId].latitudeMinuteOfAreaForSale = 0;\r\n        // accessLandDetails[_landId].latitudeSecondOfAreaForSale = 0;\r\n        // accessLandDetails[_landId].longitudeDegreeOfAreaForSale = 0;\r\n        // accessLandDetails[_landId].longitudeMinuteOfAreaForSale = 0;\r\n        // accessLandDetails[_landId].longitudeSecondOfAreaForSale = 0;\r\n        // accessLandDetails[_landId].marketPriceOfAreaForSale = 0;\r\n        // accessLandDetails[_landId].radiusOfAreaForSale = 0;\r\n        // accessLandDetails[_landId].minOffer = 0;\r\n        _initializeLandDetails(_landId);\r\n    }\r\n\r\n    function _requestVerificationOfSaleDetails(uint _landId) private {\r\n        requestOfSaleDetails.push(_landId);\r\n    }\r\n\r\n    function viewVerificationOfSaleDetails() public returns(int, int, int, int, int, int, uint, uint) {\r\n        require(adminHierarchy[msg.sender] > 0);\r\n        while(requestOfSaleDetails.length > 0 && accessLandDetails[requestOfSaleDetails[0]].isForSale == false){\r\n            _popRequestOfSaleDetails();\r\n        }\r\n        if(requestOfSaleDetails.length > 0){\r\n            return(accessLandDetails[requestOfSaleDetails[0]].latitudeDegreeOfAreaForSale, accessLandDetails[requestOfSaleDetails[0]].latitudeMinuteOfAreaForSale, accessLandDetails[requestOfSaleDetails[0]].latitudeSecondOfAreaForSale, accessLandDetails[requestOfSaleDetails[0]].longitudeDegreeOfAreaForSale, accessLandDetails[requestOfSaleDetails[0]].longitudeMinuteOfAreaForSale, accessLandDetails[requestOfSaleDetails[0]].longitudeSecondOfAreaForSale, accessLandDetails[requestOfSaleDetails[0]].radiusOfAreaForSale, accessLandDetails[requestOfSaleDetails[0]].marketPriceOfAreaForSale);\r\n        }\r\n        \r\n        return (0,0,0,0,0,0,0,0);\r\n    }\r\n\r\n    function approveSaleDetails() public {\r\n        require(adminHierarchy[msg.sender] > 0);\r\n        accessLandDetails[requestOfSaleDetails[0]].verifiedSaleDetails = true;\r\n        _popRequestOfSaleDetails();\r\n    }\r\n\r\n    function approveSaleDetails(int _latitudeDegreeAfterSale, int _latitudeMinuteAfterSale, int _latitudeSecondAfterSale, int _longitudeDegreeAfterSale, int _longitudeMinuteAfterSale, int _longitudeSecondAfterSale, uint _marketPriceAfterSale, uint _radiusAfterSale) public {\r\n        require(adminHierarchy[msg.sender] > 0);\r\n        accessLandDetails[requestOfSaleDetails[0]].latitudeDegreeAfterSale = _latitudeDegreeAfterSale;\r\n        accessLandDetails[requestOfSaleDetails[0]].latitudeMinuteAfterSale = _latitudeMinuteAfterSale;\r\n        accessLandDetails[requestOfSaleDetails[0]].latitudeSecondAfterSale = _latitudeSecondAfterSale;\r\n        accessLandDetails[requestOfSaleDetails[0]].longitudeDegreeAfterSale = _longitudeDegreeAfterSale;\r\n        accessLandDetails[requestOfSaleDetails[0]].longitudeMinuteAfterSale = _longitudeMinuteAfterSale;\r\n        accessLandDetails[requestOfSaleDetails[0]].longitudeSecondAfterSale = _longitudeSecondAfterSale;\r\n        accessLandDetails[requestOfSaleDetails[0]].marketPriceAfterSale = _marketPriceAfterSale;\r\n        accessLandDetails[requestOfSaleDetails[0]].radiusAfterSale = _radiusAfterSale;\r\n    }\r\n\r\n    function makeAnOffer(uint _landId, uint _buyersOffer) public {\r\n        require(accessLandDetails[_landId].isForSale && accessLandDetails[_landId].landOwner != msg.sender && accessLandDetails[_landId].verifiedSaleDetails && accessLandDetails[_landId].minOffer < _buyersOffer && accessLandDetails[_landId].buyersOffer < _buyersOffer);\r\n        accessLandDetails[_landId].buyersAddress = msg.sender;\r\n        accessLandDetails[_landId].buyersOffer = _buyersOffer;\r\n        accessLandDetails[_landId].hasAnOffer = true;\r\n    }\r\n\r\n    function withdrawOffer(uint _landId) public {\r\n        require(accessLandDetails[_landId].buyersAddress == msg.sender);\r\n        accessLandDetails[_landId].buyersAddress = address(0);\r\n        accessLandDetails[_landId].buyersOffer = 0;\r\n        accessLandDetails[_landId].hasAnOffer = false;\r\n    }\r\n\r\n    function viewOffer(uint _landId) public view returns(uint) {\r\n        return accessLandDetails[_landId].buyersOffer;\r\n    }\r\n\r\n    function acceptOffer(uint _landId) public {\r\n        require(msg.sender == accessLandDetails[_landId].landOwner);\r\n        if(accessLandDetails[_landId].areaForSale == accessLandDetails[_landId].areaInCents){\r\n            _completeTransfer(_landId);\r\n        }\r\n        else {\r\n            _partialTransfer(_landId);\r\n        }\r\n    }\r\n\r\n    function rejectOffer(uint _landId) public {\r\n        require(accessLandDetails[_landId].landOwner == msg.sender);\r\n        accessLandDetails[_landId].buyersAddress = address(0);\r\n        accessLandDetails[_landId].buyersOffer = 0;\r\n        accessLandDetails[_landId].hasAnOffer = false;\r\n    }\r\n\r\n    function _completeTransfer(uint _landId) private {\r\n        _removeAssetFromPortfolio(_landId, accessLandDetails[_landId].landOwner);\r\n        accessLandDetails[_landId].landOwner = accessLandDetails[_landId].buyersAddress;\r\n        _initializeLandDetails(_landId);\r\n        portfolio[accessLandDetails[_landId].landOwner].push(_landId);\r\n    }\r\n\r\n    function _partialTransfer(uint _landId) private {\r\n        // get new subdivision numbers\r\n        string memory _subDivisionNumber1 = _stringconcat(accessLandDetails[_landId].subDivisionNumber, \"/1\");\r\n        string memory _subDivisionNumber2 = _stringconcat(accessLandDetails[_landId].subDivisionNumber, \"/2\");\r\n        // generate new land id\r\n        uint _landId1 = generateLandId(accessLandDetails[_landId].state, accessLandDetails[_landId].district, accessLandDetails[_landId].village, accessLandDetails[_landId].surveyNumber, _subDivisionNumber1);\r\n        uint _landId2 = generateLandId(accessLandDetails[_landId].state, accessLandDetails[_landId].district, accessLandDetails[_landId].village, accessLandDetails[_landId].surveyNumber, _subDivisionNumber2);\r\n        // pop the previous one\r\n        _removeAssetFromPortfolio(_landId, accessLandDetails[_landId].landOwner);\r\n        // initialize both new land details\r\n        _initializeLandDetails(_landId1);\r\n        _initializeLandDetails(_landId2);\r\n        accessLandDetails[_landId1].landOwner = accessLandDetails[_landId].landOwner;\r\n        accessLandDetails[_landId1].state = accessLandDetails[_landId].state;\r\n        accessLandDetails[_landId1].district = accessLandDetails[_landId].district;\r\n        accessLandDetails[_landId1].village = accessLandDetails[_landId].village;\r\n        accessLandDetails[_landId1].surveyNumber = accessLandDetails[_landId].surveyNumber;\r\n        accessLandDetails[_landId1].subDivisionNumber = _subDivisionNumber1;\r\n        accessLandDetails[_landId1].latitudeDegree = accessLandDetails[_landId].latitudeDegreeAfterSale;\r\n        accessLandDetails[_landId1].latitudeMinute = accessLandDetails[_landId].latitudeMinuteAfterSale;\r\n        accessLandDetails[_landId1].latitudeSecond = accessLandDetails[_landId].latitudeSecondAfterSale;\r\n        accessLandDetails[_landId1].longitudeDegree = accessLandDetails[_landId].longitudeDegreeAfterSale;\r\n        accessLandDetails[_landId1].longitudeMinute = accessLandDetails[_landId].longitudeMinuteAfterSale;\r\n        accessLandDetails[_landId1].longitudeSecond = accessLandDetails[_landId].longitudeSecondAfterSale;\r\n        accessLandDetails[_landId1].radius = accessLandDetails[_landId].radiusAfterSale;\r\n        accessLandDetails[_landId1].areaInCents = accessLandDetails[_landId].areaInCents - accessLandDetails[_landId].areaForSale;\r\n        accessLandDetails[_landId1].marketPrice = accessLandDetails[_landId].marketPriceAfterSale;\r\n        accessLandDetails[_landId1].isDryLand = accessLandDetails[_landId].isDryLand;\r\n        \r\n        accessLandDetails[_landId2].landOwner = accessLandDetails[_landId].buyersAddress;\r\n        accessLandDetails[_landId2].state = accessLandDetails[_landId].state;\r\n        accessLandDetails[_landId2].district = accessLandDetails[_landId].district;\r\n        accessLandDetails[_landId2].village = accessLandDetails[_landId].village;\r\n        accessLandDetails[_landId2].surveyNumber = accessLandDetails[_landId].surveyNumber;\r\n        accessLandDetails[_landId2].subDivisionNumber = _subDivisionNumber2;\r\n        accessLandDetails[_landId2].latitudeDegree = accessLandDetails[_landId].latitudeDegreeOfAreaForSale;\r\n        accessLandDetails[_landId2].latitudeMinute = accessLandDetails[_landId].latitudeMinuteOfAreaForSale;\r\n        accessLandDetails[_landId2].latitudeSecond = accessLandDetails[_landId].latitudeSecondOfAreaForSale;\r\n        accessLandDetails[_landId2].longitudeDegree = accessLandDetails[_landId].longitudeDegreeOfAreaForSale;\r\n        accessLandDetails[_landId2].longitudeMinute = accessLandDetails[_landId].longitudeMinuteOfAreaForSale;\r\n        accessLandDetails[_landId2].longitudeSecond = accessLandDetails[_landId].longitudeSecondOfAreaForSale;\r\n        accessLandDetails[_landId2].radius = accessLandDetails[_landId].radiusOfAreaForSale;\r\n        accessLandDetails[_landId2].areaInCents = accessLandDetails[_landId].areaForSale;\r\n        accessLandDetails[_landId2].marketPrice = accessLandDetails[_landId].marketPriceOfAreaForSale;\r\n        accessLandDetails[_landId2].isDryLand = accessLandDetails[_landId].isDryLand;\r\n\r\n\r\n        // push them to their respective owners\r\n\r\n        portfolio[accessLandDetails[_landId1].landOwner].push(_landId1);\r\n        portfolio[accessLandDetails[_landId2].landOwner].push(_landId2);\r\n\r\n        _deleteLandDetails(_landId);\r\n    }\r\n\r\n    function _initializeLandDetails(uint _landId) private {\r\n        accessLandDetails[_landId].isForSale = false;\r\n        accessLandDetails[_landId].areaForSale = 0;\r\n        accessLandDetails[_landId].latitudeDegreeOfAreaForSale = 0;\r\n        accessLandDetails[_landId].latitudeMinuteOfAreaForSale = 0;\r\n        accessLandDetails[_landId].latitudeSecondOfAreaForSale = 0;\r\n        accessLandDetails[_landId].longitudeDegreeOfAreaForSale = 0;\r\n        accessLandDetails[_landId].longitudeMinuteOfAreaForSale = 0;\r\n        accessLandDetails[_landId].longitudeSecondOfAreaForSale = 0;\r\n        accessLandDetails[_landId].marketPriceOfAreaForSale = 0;\r\n        accessLandDetails[_landId].radiusOfAreaForSale = 0;\r\n        accessLandDetails[_landId].minOffer = 0;\r\n        accessLandDetails[_landId].verifiedSaleDetails = false;\r\n        accessLandDetails[_landId].hasAnOffer = false;\r\n        accessLandDetails[_landId].buyersAddress = address(0);\r\n        accessLandDetails[_landId].buyersOffer = 0;\r\n        accessLandDetails[_landId].latitudeDegreeAfterSale = 0;\r\n        accessLandDetails[_landId].latitudeMinuteAfterSale = 0;\r\n        accessLandDetails[_landId].latitudeSecondAfterSale = 0;\r\n        accessLandDetails[_landId].longitudeDegreeAfterSale = 0;\r\n        accessLandDetails[_landId].longitudeMinuteAfterSale = 0;\r\n        accessLandDetails[_landId].longitudeSecondAfterSale = 0;\r\n        accessLandDetails[_landId].marketPriceAfterSale = 0;\r\n        accessLandDetails[_landId].radiusAfterSale = 0;\r\n    }\r\n\r\n    function _deleteLandDetails(uint _landId) private {\r\n        accessLandDetails[_landId].landOwner = address(0);\r\n        accessLandDetails[_landId].state = \"\";\r\n        accessLandDetails[_landId].district = \"\";\r\n        accessLandDetails[_landId].village = \"\";\r\n        accessLandDetails[_landId].surveyNumber = \"\";\r\n        accessLandDetails[_landId].subDivisionNumber = \"\";\r\n        accessLandDetails[_landId].latitudeDegree = 0;\r\n        accessLandDetails[_landId].latitudeMinute = 0;\r\n        accessLandDetails[_landId].latitudeSecond = 0;\r\n        accessLandDetails[_landId].longitudeDegree = 0;\r\n        accessLandDetails[_landId].longitudeMinute = 0;\r\n        accessLandDetails[_landId].longitudeSecond = 0;\r\n        accessLandDetails[_landId].radius = 0;\r\n        accessLandDetails[_landId].areaInCents = 0;\r\n        accessLandDetails[_landId].marketPrice = 0;\r\n        accessLandDetails[_landId].isDryLand = false;\r\n        accessLandDetails[_landId].isForSale = false;\r\n        accessLandDetails[_landId].areaForSale = 0;\r\n        accessLandDetails[_landId].latitudeDegreeOfAreaForSale = 0;\r\n        accessLandDetails[_landId].latitudeMinuteOfAreaForSale = 0;\r\n        accessLandDetails[_landId].latitudeSecondOfAreaForSale = 0;\r\n        accessLandDetails[_landId].longitudeDegreeOfAreaForSale = 0;\r\n        accessLandDetails[_landId].longitudeMinuteOfAreaForSale = 0;\r\n        accessLandDetails[_landId].longitudeSecondOfAreaForSale = 0;\r\n        accessLandDetails[_landId].marketPriceOfAreaForSale = 0;\r\n        accessLandDetails[_landId].radiusOfAreaForSale = 0;\r\n        accessLandDetails[_landId].minOffer = 0;\r\n        accessLandDetails[_landId].verifiedSaleDetails = false;\r\n        accessLandDetails[_landId].hasAnOffer = false;\r\n        accessLandDetails[_landId].buyersAddress = address(0);\r\n        accessLandDetails[_landId].buyersOffer = 0;\r\n        accessLandDetails[_landId].latitudeDegreeAfterSale = 0;\r\n        accessLandDetails[_landId].latitudeMinuteAfterSale = 0;\r\n        accessLandDetails[_landId].latitudeSecondAfterSale = 0;\r\n        accessLandDetails[_landId].longitudeDegreeAfterSale = 0;\r\n        accessLandDetails[_landId].longitudeMinuteAfterSale = 0;\r\n        accessLandDetails[_landId].longitudeSecondAfterSale = 0;\r\n        accessLandDetails[_landId].marketPriceAfterSale = 0;\r\n        accessLandDetails[_landId].radiusAfterSale = 0;\r\n    }\r\n\r\n    function _findIndex(uint _landId, address _landOwner) private view returns(uint) {\r\n        uint i;\r\n        for(i=0; i<portfolio[_landOwner].length; i++){\r\n            if(portfolio[_landOwner][i] == _landId){\r\n                return i;\r\n            }\r\n        }\r\n        return i;\r\n    }\r\n\r\n    function _removeAssetFromPortfolio(uint _landId, address _landOwner) private {\r\n        uint index = _findIndex(_landId, _landOwner);\r\n        portfolio[_landOwner][index] = portfolio[_landOwner][portfolio[_landOwner].length - 1];\r\n        portfolio[_landOwner].pop();\r\n    }\r\n\r\n    function _stringconcat(string memory _string1, string memory _string2) private pure returns (string memory) {\r\n        return(string(abi.encodePacked(_string1, _string2)));\r\n    }\r\n\r\n    function _popRequestList() private {\r\n        uint len = requestList.length;\r\n        for (uint i = 1; i < len; i++) {\r\n            requestList[i-1] = requestList[i];\r\n        }\r\n        requestList.pop();\r\n    }\r\n\r\n    function _popRequestOfSaleDetails() private {\r\n        uint len = requestOfSaleDetails.length;\r\n        for (uint i = 1; i < len; i++) {\r\n            requestOfSaleDetails[i-1] = requestOfSaleDetails[i];\r\n        }\r\n        requestOfSaleDetails.pop();\r\n    }\r\n}\r\n",
  "sourcePath": "C:/Users/santh/Desktop/LandRegistration/contracts/LandRegistration.sol",
  "compiler": {
    "name": "solc",
    "version": "0.8.4+commit.c7e474f2.Emscripten.clang"
  },
  "schemaVersion": "3.4.1",
  "updatedAt": "2021-07-05T06:11:54.169Z",
  "networkType": "ethereum",
  "devdoc": {
    "kind": "dev",
    "methods": {},
    "version": 1
  },
  "userdoc": {
    "kind": "user",
    "methods": {},
    "version": 1
  }
}